:100000000C942A000C9447000C9447000C94470071
:100010000C9447000C9447000C9447000C94470044
:100020000C9447000C9447000C9447000C94470034
:100030000C9447000C9447000C9447000C94470024
:100040000C9447000C9447000C9447000C94470014
:100050000C94470011241FBECFE5D4E0DEBFCDBF16
:1000600010E0A0E6B0E0E8ECF4E002C005900D92EC
:10007000AC39B107D9F710E0ACE9B0E001C01D928E
:10008000AC39B107E1F70E94D5000C9462020C94E0
:100090000000282F207F28BBC298C39A20ED37E0AC
:1000A000F9013197F1F7C398F9013197F1F790E031
:1000B00044E0880F991F4A95E1F788BBC298C39A1C
:1000C000C9010197F1F7C398C9010197F1F70895A4
:1000D00082E090E00E94490088E290E00E9449009E
:1000E00086E090E00E9449008CE090E00E94490088
:1000F0000895282F207F28BBC29AC39A20ED37E0AD
:10010000F9013197F1F7C398F9013197F1F790E0D0
:1001100054E0880F991F5A95E1F788BBC29AC39A99
:10012000C9010197F1F7C398C9010197F1F7089543
:1001300081E00E94490080ED97E00197F1F7089572
:100140001F93CF93DF93EC0110E003C00E9479006E
:100150001F5FFE01E10FF11D80818823B9F7DF9158
:10016000CF911F910895CF93DF93EC0184E00E941B
:100170004900209791F480E30E9479000EC0CE01DF
:100180006AE070E00E944E02805D0E947900CE011C
:100190006AE070E00E944E02EB01209781F786E052
:1001A0000E944900DF91CF9108952F923F924F9284
:1001B0005F926F927F928F929F92AF92BF92CF92F7
:1001C000DF92EF92FF920F931F93CF93DF931FEF76
:1001D00017BB0E94680014BB1ABA88EF8BBBC8EC2F
:1001E000D0E05AEA552E45E5442E30E4332E20E285
:1001F000222E98E0C92E84E0B82E02E0A02E992489
:100200009394B0EC8B2EA0EE7A2EF0EF6F2EE8EFE9
:10021000FE2E7CEFE72E6EEFD62E07EE89B3887F99
:100220008837D1F40E94980080E80E94490080E657
:1002300090E00E94A00015BB88EE93E0FE0131978C
:10024000F1F70197D9F715BA88EE93E0FE013197DF
:10025000F1F70197D9F702C00E94980015BA89B347
:10026000887F883BC1F480E80E9449008AE690E0DC
:100270000E94A00055BA88EE93E0FE013197F1F795
:100280000197D9F745BA88EE93E0FE013197F1F76F
:100290000197D9F702C00E94980015BA89B3887FE8
:1002A000883D09F04AC080E80E94490088E790E054
:1002B0000E94A00080E885BB88EE93E0FE013197A4
:1002C000F1F70197D9F735BA88EE93E0FE0131973F
:1002D000F1F70197D9F725BA88EE93E0FE0131973F
:1002E000F1F70197D9F780E185BB88EE93E0FE0135
:1002F0003197F1F70197D9F7C5BA88EE93E0FE017F
:100300003197F1F70197D9F7B5BA88EE93E0FE017E
:100310003197F1F70197D9F7A5BA88EE93E0FE017E
:100320003197F1F70197D9F795BA88EE93E0FE017E
:100330003197F1F70197D9F702C00E94980015BADA
:1003400089B3887F883E09F049C080E80E9449004F
:1003500082E890E00E94A00080E885BB88EE93E0F0
:10036000FE013197F1F70197D9F785BA88EE93E04E
:10037000FE013197F1F70197D9F775BA88EE93E04E
:10038000FE013197F1F70197D9F765BA88EE93E04E
:10039000FE013197F1F70197D9F7F5BA88EE93E0AE
:1003A000FE013197F1F70197D9F7E5BA88EE93E0AE
:1003B000FE013197F1F70197D9F7D5BA88EE93E0AE
:1003C000FE013197F1F70197D9F715BB88EE93E05D
:1003D000FE013197F1F70197D9F702C00E9498000A
:1003E00015BA89B3887F803F09F054C080E80E9425
:1003F00049008DE890E00E94A00015BB88EE93E0D4
:10040000FE013197F1F70197D9F705BB88EE93E02C
:10041000FE013197F1F70197D9F783EC85BB88EEA0
:1004200093E0FE013197F1F70197D9F781E885BB99
:1004300088EE93E0FE013197F1F70197D9F715BAED
:1004400088EE93E0FE013197F1F70197D9F781E843
:1004500085BB88EE93E0FE013197F1F70197D9F75C
:1004600083EC85BB88EE93E0FE013197F1F70197AD
:10047000D9F705BB88EE93E0FE013197F1F70197BC
:10048000D9F715BB88EE93E0FE013197F1F701979C
:10049000D9F702C00E94980015BAC0CEAA1BBB1B98
:1004A00051E107C0AA1FBB1FA617B70710F0A61B74
:1004B000B70B881F991F5A95A9F780959095BC0195
:0804C000CD010895F894FFCF6F
:1004C8006C656420626C696E6B006C656420616C9D
:1004D8007465726E6174650072656C6179206C6513
:1004E8006400636861736572206C6564006375728B
:0C04F8007461696E2F6F6E2F6F6600003C
:00000001FF
